:100000000C9434000C9451000C9451000C94510049
:100010000C9451000C9451000C9451000C9451001C
:100020000C9451000C9451000C9451000C9451000C
:100030000C9451000C9451000C9451000C945100FC
:100040000C9451000C9451000C9451000C945100EC
:100050000C9451000C9451000C9451000C945100DC
:100060000C9451000C94510011241FBECFEFD8E026
:10007000DEBFCDBF11E0A0E0B1E0E4E9F8E002C0EE
:1000800005900D92A830B107D9F721E0A8E0B1E0C2
:1000900001C01D92AD30B207E1F70E941B010C9424
:1000A00048040C94000090917C00907F8F70892B05
:1000B00080937C0080917A00806480937A008091A4
:1000C0007A0086FDFCCF80917800909179000895A8
:1000D0005A989AB1906F9AB99BB1807F9F70892B83
:1000E0008BB900C0599A00C059988AB18F708AB9EB
:1000F0000895882311F05B9A01C05B985A9A8AB1DF
:100100008F708AB900C0599A00C029B1599800C0AF
:10011000599A00C099B15998207F892F82958F7084
:10012000822B0895CF93DF93C82FD62F80E00E94B3
:10013000790087FDFBCFDD2311F05B9A01C05B984E
:1001400000C000C000008C2F0E9468008C2F829598
:10015000807FDF91CF910C9468008AB1806F8AB95B
:100160008AB18E608AB98BB1817F8BB981EF9BE2B6
:100170000197F1F700C0000080E30E94680081EE63
:1001800094E00197F1F700C0000080E30E9468004E
:1001900089EF90E00197F1F700C0000080E30E9432
:1001A000680089EF90E00197F1F700C0000080E25D
:1001B0000E94680089EF90E00197F1F700C000000D
:1001C00080E20E94680080E80E94680060E08CE0A5
:1001D0000E94920060E081E00E94920060E086E070
:1001E0000C9492001F93CF93DF93EC0180E011E019
:1001F000180FFE01E80FF11D8081882329F061E0CE
:100200000E949200812FF3CFDF91CF911F9108952B
:10021000813031F0823031F0833031F094ED05C01F
:1002200090E803C090EC01C094E98FEF860F60E086
:10023000890F0C949200F8940E94AD00789405E028
:1002400011E0C8E0D1E082E00E945300D82EC92E10
:1002500081E00E945300F82EE92E61E083E00E94C5
:10026000080180E091E00E94F20061E081E00E94DC
:100270000801CF92DF921F930F93DF93CF930E94D9
:100280005E0188E091E00E94F20061E082E00E945D
:100290000801EF92FF921F930F93DF93CF930E9479
:1002A0005E0188E091E00E94F2008DB79EB70C9647
:1002B0000FB6F8949EBF0FBE8DBFC5CFAEE0B0E0C5
:1002C000E4E6F1E00C941F040D891E8986E08C831E
:1002D0001A8309838FEF9FE79E838D83AE01475E6C
:1002E0005F4F6F89788DCE0101960E948001EF816A
:1002F000F885E00FF11F10822E96E4E00C943B0489
:10030000ABE0B0E0E6E8F1E00C9411046C017B0195
:100310008A01FC0117821682838181FFCCC1CE0144
:1003200001963C01F6019381F70193FD859193FFBE
:1003300081917F01882309F4BAC1853239F493FD94
:10034000859193FF81917F01853229F4B60190E078
:100350000E947703E7CF912C212C312CFFE1F3157C
:10036000D8F08B3279F038F4803279F08332A1F40E
:10037000232D20611DC08D3261F0803369F4232D5F
:10038000216016C0832D8260382EE32DE4603E2E5E
:100390002AC0F32DF8601DC037FC2DC020ED280FBA
:1003A0002A3040F08E32B9F436FC81C1232D20640E
:1003B000322E19C036FE06C08AE0989E200D112408
:1003C000922E11C0EAE02E9E200D1124222EF32D34
:1003D000F0623F2E08C08C3621F4832D8068382EC1
:1003E00002C0883641F4F70193FD859193FF819116
:1003F0007F018111B3CF982F9F7D9554933028F4BE
:100400000C5F1F4F9FE399830DC0833631F0833714
:1004100071F0833509F059C021C0F80180818983CA
:100420000E5F1F4F88248394912C530113C0280121
:10043000F2E04F0E511CF801A080B18036FE03C0DF
:10044000692D70E002C06FEF7FEFC5010E946C0361
:100450004C018201F32DFF773F2E16C0280122E0C8
:10046000420E511CF801A080B18036FE03C0692DF8
:1004700070E002C06FEF7FEFC5010E9461034C0185
:10048000F32DF0683F2E820133FC1BC0822D90E0DB
:1004900088169906B0F4B60180E290E00E947703D6
:1004A0002A94F4CFF50137FC859137FE81915F01E5
:1004B000B60190E00E94770321102A9421E0821A6D
:1004C00091088114910471F7E8C0843611F08936DF
:1004D00041F5F80137FE07C0608171818281938107
:1004E0000C5F1F4F08C060817181072E000C880BC4
:1004F000990B0E5F1F4FF32DFF763F2E97FF09C01C
:1005000090958095709561957F4F8F4F9F4FF068C4
:100510003F2E2AE030E0A3010E94B303882E861804
:1005200045C0853731F4232D2F7EB22E2AE030E0EE
:1005300025C0932D997FB92E8F36C1F018F48835D8
:1005400079F0B5C0803719F0883721F0B0C0E92FB5
:10055000E061BE2EB4FE0DC0FB2DF460BF2E09C0BD
:1005600034FE0AC0292F2660B22E06C028E030E0F3
:1005700005C020E130E002C020E132E0F801B7FE22
:1005800007C060817181828193810C5F1F4F06C01B
:100590006081718180E090E00E5F1F4FA3010E9497
:1005A000B303882E8618FB2DFF773F2E36FE0DC035
:1005B000232D2E7FA22E891458F434FE0BC032FC5A
:1005C00009C0832D8E7EA82E05C0B82CA32C03C095
:1005D000B82C01C0B92CA4FE0FC0FE01E80DF11D1E
:1005E0008081803321F49A2D997EA92E09C0A2FE24
:1005F00006C0B394B39404C08A2D867809F0B394EE
:10060000A3FC11C0A0FE06C0B21488F4280C922CE2
:100610009B180EC0B21460F4B60180E290E00E9414
:100620007703B394F7CFB21418F42B1802C0982CA8
:10063000212CA4FE10C0B60180E390E00E94770355
:10064000A2FE17C0A1FC03C088E790E002C088E5C5
:1006500090E0B6010CC08A2D867859F0A1FE02C048
:100660008BE201C080E2A7FC8DE2B60190E00E941F
:100670007703891438F4B60180E390E00E94770391
:100680009A94F7CF8A94F301E80DF11D8081B601A9
:1006900090E00E9477038110F5CF222009F442CE2A
:1006A000B60180E290E00E9477032A94F6CFF6012B
:1006B0008681978102C08FEF9FEF2B96E2E10C9429
:1006C0002D04FC010590615070400110D8F7809511
:1006D00090958E0F9F1F0895FC016150704001900E
:1006E0000110D8F7809590958E0F9F1F08950F9356
:1006F0001F93CF93DF93FB01238121FD03C08FEF75
:100700009FEF2CC022FF16C046815781248135817E
:100710004217530744F4A081B1819D012F5F3F4FE1
:10072000318320838C93268137812F5F3F4F37831E
:10073000268314C08B01EC01FB010084F185E02DC0
:100740000995892BE1F6D80116968D919C91179702
:10075000019617969C938E931697CE01DF91CF91B9
:100760001F910F910895FA01AA27283051F12031E5
:1007700081F1E8946F936E7F6E5F7F4F8F4F9F4F35
:10078000AF4FB1E03ED0B4E03CD0670F781F891F77
:100790009A1FA11D680F791F8A1F911DA11D6A0F45
:1007A000711D811D911DA11D20D009F468943F91F8
:1007B0002AE0269F11243019305D3193DEF6CF01F7
:1007C0000895462F4770405D4193B3E00FD0C9F7BD
:1007D000F6CF462F4F70405D4A3318F0495D31FD2A
:1007E0004052419302D0A9F7EACFB4E0A69597957D
:1007F000879577956795BA95C9F700976105710553
:1008000008959B01AC010A2E06945795479537959C
:100810002795BA95C9F7620F731F841F951FA01DF6
:1008200008952F923F924F925F926F927F928F9294
:100830009F92AF92BF92CF92DF92EF92FF920F936F
:100840001F93CF93DF93CDB7DEB7CA1BDB0B0FB679
:10085000F894DEBF0FBECDBF09942A883988488836
:100860005F846E847D848C849B84AA84B984C884CC
:10087000DF80EE80FD800C811B81AA81B981CE0FC3
:10088000D11D0FB6F894DEBF0FBECDBFED010895A8
:04089000F894FFCF0A
:0808940054455354002569008E
:00000001FF
