:100000000C94B5000C94D2000C94B5060C94D2005C
:100010000C94D2000C94D2000C94D2000C94D20018
:100020000C94D2000C94D2000C94D2000C94D20008
:100030000C94D2000C94D2000C94D2000C94D200F8
:100040000C94D2000C94D2000C94D2000C94D200E8
:100050000C94D2000C94D2000C94D2000C94D200D8
:100060000C94D2000C94D2006E616E00696E660032
:1000700000407A10F35A00A0724E18090010A5D45F
:10008000E80000E87648170000E40B54020000CABC
:100090009A3B000000E1F505000080969800000002
:1000A00040420F000000A086010000001027000061
:1000B0000000E803000000006400000000000A00E7
:1000C000000000000100000000002C76D888DC67EA
:1000D0004F0823DFC1DFAE59E1B1B796E5E3E45342
:1000E000C63AE651997696E8E6C28426EB898C9B5F
:1000F00062ED407C6FFCEFBC9C9F40F2BAA56FA5FF
:10010000F490055A2AF75C936B6CF9676DC11BFC80
:10011000E0E40D47FEF520E6B500D0ED902E03009B
:10012000943577050080841E080000204E0A0000E8
:1001300000C80C333333330F986E12831141EF8DA7
:100140002114893BE65516CFFEE6DB18D1844B38E7
:100150001BF77C1D901DA4BBE424203284725E2218
:100160008100C9F124ECA1E53D2711241FBECFEF8A
:10017000D8E0DEBFCDBF11E0A0E0B1E0E2E7FEE1F4
:1001800002C005900D92AE33B107D9F721E0AEE37E
:10019000B1E001C01D92A137B207E1F70E94F1065C
:1001A0000C94370F0C940000ECE7F0E08081806441
:1001B000808380818F77808380818F7D8083EAE751
:1001C000F0E080818E7F8083808182608083808167
:1001D00084608083808180688083089590917C0012
:1001E000907F8F70892B80937C0080917A0080644F
:1001F00080937A0080917A0086FDFCCF8091780010
:10020000909179000895CF92DF92EF92FF920F9331
:100210001F93CF93DF938B010E94EE00EC01B80196
:1002200080E090E00E948D0820E030E040E85AE352
:100230000E9444096B017C01BE0180E090E00E94B5
:100240008D089B01AC01C701B6010E9444090E94C0
:100250005E08CB01DF91CF911F910F91FF90EF903E
:10026000DF90CF9008951F93CF93DF931AE0C0E003
:10027000D0E064E670E081E00E940301C80FD91F5E
:100280001150B9F7CE016AE070E00E942E0DCB014B
:10029000DF91CF911F9108951F93CF93DF931AE0C1
:1002A000C0E0D0E062EC71E081E00E940301C80F81
:1002B000D91F1150B9F7CE016AE070E00E942E0DEF
:1002C000CB01DF91CF911F9108951F93CF93DF93BF
:1002D0001AE0C0E0D0E064EF71E080E00E9403012A
:1002E000C80FD91F1150B9F7CE016AE070E00E9423
:1002F0002E0D80E090E00E948D08DF91CF911F913C
:100300000895E6E4F1E01182108212820895529875
:100310005A9A53985B9AEDE6F0E08081846080837E
:10032000E8E6F0E08081846080838AE08093690061
:1003300083E08DBB1CBA08952A9894B1906F94B94C
:1003400095B1807F9F70892B85B900C0289A00C025
:10035000289884B18F7084B90895882311F0299A60
:1003600001C029982A9A84B18F7084B900C0289A54
:1003700000C023B1289800C0289A00C093B12898E3
:10038000207F892F82958F70822B0895CF93DF93E2
:10039000C82FD62F80E00E94AD0187FDFBCFDD2363
:1003A00011F0299A01C0299800C000C000008C2FCC
:1003B0000E949C018C2F8295807FDF91CF910C94BD
:1003C0009C0184B1806F84B984B1876084B985B1A0
:1003D000887F85B981EF9BE20197F1F700C00000AB
:1003E00080E30E949C0181EE94E00197F1F700C048
:1003F000000080E30E949C0189EF90E00197F1F7F3
:1004000000C0000080E30E949C0189EF90E001970A
:10041000F1F700C0000080E20E949C0189EF90E0AB
:100420000197F1F700C0000080E20E949C0180E883
:100430000E949C0160E08CE00E94C60160E081E0C7
:100440000E94C60160E086E00C94C6011F93CF9322
:10045000DF93EC0180E011E0180FFE01E80FF11DC1
:100460008081882329F061E00E94C601812FF3CFAB
:10047000DF91CF911F910895813031F0823031F0BA
:10048000833031F094ED05C090E803C090EC01C0DA
:1004900094E98FEF860F60E0890F0C94C60160E04D
:1004A00081E00C94C60160E00C94C60161E00C94FC
:1004B000C6010F931F93CF93DF93883088F48B018D
:1004C00028E0829FC001112480640E945302E80149
:1004D000085F1F4F89910E945602C017D107D1F7BC
:1004E000DF91CF911F910F9108954F925F926F927C
:1004F0007F928F929F92AF92BF92CF92DF92EF92B4
:10050000FF92CF93DF93CDB7DEB728970FB6F8945D
:10051000DEBF0FBECDBF80913F01882309F4EDC03F
:100520008091690190916A01A0916B01B0916C0179
:1005300089839A83AB83BC839C01AD016091550193
:100540007091560180915701909158010E94730754
:100550002B013C01209161013091620140916301C6
:10056000509164010E944409209165013091660117
:1005700040916701509168010E9474076B017C01F2
:1005800060936501709366018093670190936801A1
:1005900080904D0190904E01A0904F01B09050017D
:1005A000A50194010E943F0918164CF48092650140
:1005B00090926601A0926701B092680120C080917C
:1005C000510190915201A0915301B09154018D833A
:1005D0009E83AF83B8879C01AD01C701B6010E941D
:1005E000E00787FF0CC08D819E81AF81B885809325
:1005F000650190936601A0936701B0936801209113
:100600006D0130916E0140916F0150917001C301F5
:10061000B2010E9444092091650130916601409128
:100620006701509168010E9474076B017C01209161
:10063000590130915A0140915B0150915C016981EF
:100640007A818B819C810E947307209149013091AE
:100650004A0140914B0150914C010E9444099B0179
:10066000AC01C701B6010E9473076B017C01609366
:100670005D0170935E0180935F01909360019B0127
:10068000AC01C501B4010E94E00787FF0BC0809256
:100690005D0190925E01A0925F01B092600187B50A
:1006A0008F5F1AC08090510190905201A090530129
:1006B000B0905401A5019401C701B6010E94E00762
:1006C00087FF0BC080925D0190925E01A0925F0156
:1006D000B092600187B5815087BD8091690190918A
:1006E0006A01A0916B01B0916C01809359019093C4
:1006F0005A01A0935B01B0935C0128960FB6F89461
:10070000DEBF0FBECDBFDF91CF91FF90EF90DF90A6
:10071000CF90BF90AF909F908F907F906F905F90A1
:100720004F9008954F925F926F927F928F929F9217
:10073000AF92BF92CF92DF92EF92FF920F931F93EF
:10074000CF93DF9300D000D0CDB7DEB74B015C0173
:1007500029013A01E982FA820B831C8320E030E010
:10076000A9010E94E00787FD7CC020E030E0A901DC
:10077000C301B2010E94E00787FD73C020E030E0B2
:10078000A901C801B7010E94E00787FD6AC0609116
:10079000180170E080E090E00E948D0820E030E0D9
:1007A0004AE754E40E94E5076B017C0180926D01E9
:1007B00090926E01A0926F01B09270019B01AC010A
:1007C000C301B2010E9444092B013C016093610105
:1007D000709362018093630190936401A701960175
:1007E00069817A818B819C810E94E5076B017C0184
:1007F0006093490170934A0180934B0190934C019F
:1008000080913E01813069F5A501940160E070E0BE
:10081000CB010E94730760936D0170936E0180930A
:100820006F0190937001A301920160E070E0CB0131
:100830000E9473076093610170936201809363016A
:1008400090936401A701960160E070E0CB010E94E3
:1008500073076093490170934A0180934B01909311
:100860004C010F900F900F900F90DF91CF911F913F
:100870000F91FF90EF90DF90CF90BF90AF909F903F
:100880008F907F906F905F904F900895EF92FF92BE
:100890000F931F932091690130916A0140916B0180
:1008A00050916C01609155017091560180915701F2
:1008B000909158010E9473070E9457089B0177FF8F
:1008C00004C022273327261B370BB901330F880BAF
:1008D000990B0E948F0820E030E040E251E40E9432
:1008E000E00787FF19C0E0900001F090010100913E
:1008F0000201109103012091040130910501409102
:1009000006015091070160910801709109018091E1
:100910000A0190910B0118C0E0900C01F0900D01BC
:1009200000910E0110910F012091100130911101E1
:1009300040911201509113016091140170911501C1
:1009400080911601909117010E9492031F910F91BF
:10095000FF90EF9008954F925F926F927F928F92E7
:100960009F92AF92BF92CF92DF92EF92FF926B0174
:100970007C0149015A010E943F0918160CF462C01B
:10098000C0925101D0925201E0925301F092540171
:1009900080924D0190924E01A0924F01B092500171
:1009A00040905D0150905E0160905F017090600129
:1009B000A3019201C501B4010E94E00787FF09C0AD
:1009C00080925D0190925E01A0925F01B092600101
:1009D00010C0A3019201C701B6010E943F09181679
:1009E00044F4C0925D01D0925E01E0925F01F0920A
:1009F00060014090650150906601609067017090C1
:100A00006801A3019201C501B4010E94E00787FFBC
:100A100009C08092650190926601A0926701B09230
:100A2000680110C0A3019201C701B6010E943F09ED
:100A3000181644F4C0926501D0926601E0926701F5
:100A4000F0926801FF90EF90DF90CF90BF90AF9051
:100A50009F908F907F906F905F904F9008958F92AE
:100A60009F92AF92BF92CF92DF92EF92FF928091CE
:100A7000690190916A01A0916B01B0916C01809322
:100A8000590190935A01A0935B01B0935C01C0900F
:100A90005D01D0905E01E0905F01F0906001C09236
:100AA0006501D0926601E0926701F0926801809042
:100AB0004D0190904E01A0904F01B0905001A501C2
:100AC0009401C701B6010E943F09181684F0809076
:100AD000510190905201A0905301B0905401A50192
:100AE0009401C701B6010E94E00787FF08C0809209
:100AF000650190926601A0926701B0926801FF9033
:100B0000EF90DF90CF90BF90AF909F908F9008951F
:100B1000CF93C1E08130910509F0C0E0019731F435
:100B200080913F01811102C00E942F05C0933F01B7
:100B3000CF9108956093690170936A0180936B016E
:100B400090936C01089560935501709356018093C2
:100B5000570190935801089585B5877F85BD84B569
:100B6000826084BD84B5816084BD85B58B7F85BD81
:100B700085B5826085BD85B5816085BD559A569ADB
:100B8000089594B5906894BD94B5613011F49F7B3D
:100B900001C0906494BD2FEF829FC001112462ECCC
:100BA00071E00E94420D67BD089594B5906294BDB6
:100BB00094B5613011F49F7E01C0906194BD2FEF18
:100BC000829FC001112464E670E00E94420D68BD5E
:100BD0000895EF92FF920F931F93CF93DF93CDB7BA
:100BE000DEB765970FB6F894DEBF0FBECDBF88E0C5
:100BF000E9E1F1E0DE01199601900D928A95E1F7A5
:100C000088E0E1E2F1E0DE01119601900D928A9513
:100C1000E1F70E944F0261E081E00E943C0289E21C
:100C200091E00E94260265E081E00E943C028091F2
:100C30004401909145019F938F938EE2E82E81E0CD
:100C4000F82EFF92EF928E010F5E1F4F1F930F93AE
:100C50000E94B70EC8010E942602BE01675F7F4F47
:100C600080E00E94590268E081E00E943C0280E03E
:100C70000E94560261E082E00E943C0281E391E022
:100C80000E94260263E082E00E943C0280914201C1
:100C9000909143019F938F93FF92EF921F930F9335
:100CA0000E94B70EC8010E942602BE01675F7F4FF7
:100CB00080E00E94590266E082E00E943C0280E0EF
:100CC0000E945602BE016F5F7F4F81E00E94590271
:100CD00060E182E00E943C0281E00E94560261E1F4
:100CE00082E00E943C0280914001909141019F93DB
:100CF0008F93FF92EF921F930F930E94B70EC8013C
:100D00000E94260264E182E00E943C0284E391E0BA
:100D10000E9426020FB6F894DEBF0FBECDBF8091B1
:100D20004701811107C061E181E00E943C0286E336
:100D300091E006C062E181E00E943C028AE391E01A
:100D40000E94260287EA91E60197F1F700C00000B1
:100D500065960FB6F894DEBF0FBECDBFDF91CF9181
:100D60001F910F91FF90EF9008951F920F920FB671
:100D70000F9211248F9380914601882319F01092CD
:100D8000460103C081E0809346018F910F900FBE12
:100D90000F901F9018954A9903C01092470108952B
:100DA00081E0809347010895569A8091480181110E
:100DB00007C061E082E30E94C10581E080934801A1
:100DC000089556985E9810924801089580914001C8
:100DD0009091410161E00C94D50561E080E00C94B4
:100DE000D505F8940E94E1010E94D4000E94AC0550
:100DF00081E090E00E9488050E942F050E948701F3
:100E00000E94810178948CE390E09093410180935B
:100E100040010E94CB060E9465010E945E0870930B
:100E200043016093420180914601811107C00E94F5
:100E30004C01909345018093440106C00E94330108
:100E40009093410180934001809147018823C1F133
:100E50000E94E6060E94D40660914201709143010F
:100E600080E090E00E948D080E949A056091440104
:100E70007091450180E090E00E948D080E94A305DA
:100E80006091440170914501C0914401D0914501A8
:100E9000665F7F4F80E090E00E948D086B017C01CF
:100EA000BE016A50710980E090E00E948D08A701A0
:100EB00096010E94AB040E9446040E94750210C075
:100EC0000E94E10680914201909143018135910594
:100ED00028F061E088EC0E94D50502C00E94ED0672
:100EE0000E94E90596CF5058BB27AA270E948B077E
:100EF0000C9405090E94F70838F00E94FE0820F0C3
:100F000039F49F3F19F426F40C94F4080EF4E0959C
:100F1000E7FB0C94EE08E92F0E94160958F3BA1764
:100F2000620773078407950720F079F4A6F50C94FF
:100F300038090EF4E0950B2EBA2FA02D0B01B90144
:100F400090010C01CA01A0011124FF27591B99F03F
:100F5000593F50F4503E68F11A16F040A22F232F4B
:100F6000342F4427585FF3CF469537952795A7959B
:100F7000F0405395C9F77EF41F16BA0B620B730B42
:100F8000840BBAF09150A1F0FF0FBB1F661F771FB3
:100F9000881FC2F70EC0BA0F621F731F841F48F468
:100FA000879577956795B795F7959E3F08F0B0CFF1
:100FB0009395880F08F09927EE0F979587950895D8
:100FC0000E94CA0808F481E008950E94F9070C9471
:100FD00005090E94FE0858F00E94F70840F029F425
:100FE0005F3F29F00C94EE0851110C9439090C94D0
:100FF000F4080E94160968F39923B1F3552391F37D
:10100000951B550BBB27AA2762177307840738F077
:101010009F5F5F4F220F331F441FAA1FA9F335D0D4
:101020000E2E3AF0E0E832D091505040E695001C88
:10103000CAF72BD0FE2F29D0660F771F881FBB1F42
:10104000261737074807AB07B0E809F0BB0B802D20
:10105000BF01FF2793585F4F3AF09E3F510578F04C
:101060000C94EE080C9439095F3FE4F3983ED4F3F6
:10107000869577956795B795F7959F5FC9F7880F20
:10108000911D9695879597F90895E1E0660F771F72
:10109000881FBB1F621773078407BA0720F0621B03
:1010A000730B840BBA0BEE1F88F7E09508950E942E
:1010B0005E086894B1110C94390908950E941E09C4
:1010C00088F09F5798F0B92F9927B751B0F0E1F009
:1010D000660F771F881F991F1AF0BA95C9F714C0B9
:1010E000B13091F00E943809B1E008950C943809AC
:1010F000672F782F8827B85F39F0B93FCCF38695F2
:1011000077956795B395D9F73EF49095809570954E
:1011100061957F4F8F4F9F4F0895E89409C097FBCB
:101120003EF490958095709561957F4F8F4F9F4FBE
:101130009923A9F0F92F96E9BB279395F695879502
:1011400077956795B795F111F8CFFAF4BB0F11F4C5
:1011500060FF1BC06F5F7F4F8F4F9F4F16C088236C
:1011600011F096E911C0772321F09EE8872F762FA2
:1011700005C0662371F096E8862F70E060E02AF0E3
:101180009A95660F771F881FDAF7880F96958795CF
:1011900097F90895990F0008550FAA0BE0E8FEEFA4
:1011A00016161706E807F907C0F012161306E4072B
:1011B000F50798F0621B730B840B950B39F40A2624
:1011C00061F0232B242B252B21F408950A2609F402
:1011D000A140A6958FEF811D811D089597F99F6706
:1011E00080E870E060E008959FEF80EC08950024AF
:1011F0000A941616170618060906089500240A947C
:1012000012161306140605060895092E0394000C01
:1012100011F4882352F0BB0F40F4BF2B11F460FF90
:1012200004C06F5F7F4F8F4F9F4F089557FD9058B9
:10123000440F551F59F05F3F71F04795880F97FB9A
:10124000991F61F09F3F79F0879508951216130654
:101250001406551FF2CF4695F1DF08C01616170683
:101260001806991FF1CF86957105610508940895B8
:10127000E894BB2766277727CB0197F908950E944A
:10128000CA0808F48FEF08950E9457090C940509C5
:101290000E94F70838F00E94FE0820F0952311F014
:1012A0000C94EE080C94F40811240C9439090E9453
:1012B000160970F3959FC1F3950F50E0551F629F7B
:1012C000F001729FBB27F00DB11D639FAA27F00D9F
:1012D000B11DAA1F649F6627B00DA11D661F829FC6
:1012E0002227B00DA11D621F739FB00DA11D621FAB
:1012F000839FA00D611D221F749F3327A00D611DC8
:10130000231F849F600D211D822F762F6A2F1124A9
:101310009F5750409AF0F1F088234AF0EE0FFF1FDC
:10132000BB1F661F771F881F91505040A9F79E3F33
:10133000510580F00C94EE080C9439095F3FE4F3FA
:10134000983ED4F3869577956795B795F795E79589
:101350009F5FC1F7FE2B880F911D9695879597F992
:101360000895A0E1B0E0E7EBF9E00C94560D7C01A4
:101370001B016A01FC0117821682838181FF44C32D
:101380009E012F5F3F4F3901F7019381F10193FDDA
:10139000859193FF81911F01882309F431C3853220
:1013A00039F493FD859193FF81911F01853239F4C2
:1013B000B70190E00E947B0E56016501E5CF10E079
:1013C000512C912CFFE1F915D8F08B3279F038F4DB
:1013D000803279F08332A1F4F92DF0612EC08D3284
:1013E00061F0803369F4292D21602DC0392D3260E0
:1013F000932E892D8460982E2AC0E92DE86015C0AF
:1014000097FC2DC020ED280F2A3088F496FE06C0E8
:101410003AE0139F200D1124122F19C08AE0589E24
:10142000200D1124522EE92DE0629E2E10C08E3226
:1014300031F496FCE5C2F92DF0649F2E08C08C367D
:1014400021F4292D2068922E02C0883641F4F10142
:1014500093FD859193FF81911F018111B3CF9BEB88
:10146000980F933020F4992D9061805E07C09BE91E
:10147000980F933008F066C1992D9F7E96FF16E075
:101480009F73992E853619F49064992E08C086367C
:1014900021F4392F3068932E02C01111115097FE9C
:1014A00007C01C3350F444244394410E27E00BC082
:1014B000183038F027E017E005C027E09CE3492EFC
:1014C00002C0212F412C560184E0A80EB11CF60168
:1014D0006081718182819381042DA3010E948D0D11
:1014E0006C01F981FC87F0FF02C0F3FF06C091FC9C
:1014F00006C092FE06C000E205C00DE203C00BE28A
:1015000001C000E08C858C7019F001115AC29BC299
:1015100097FE10C04C0CFC85F4FF04C08A81813317
:1015200009F44A94141474F528E0241578F588E039
:10153000482E2CC096FC2AC0812F90E08C159D056A
:101540009CF03CEFC3163FEFD30674F0892D806802
:10155000982E0AC0E2E0F0E0EC0FFD1FE10FF11D54
:101560008081803319F411501111F4CF97FE0EC011
:1015700044244394410E812F90E0C816D9062CF4E0
:101580001C1904C04424439401C010E097FE06C017
:101590001C141D0434F4C601019605C085E090E0DA
:1015A00002C081E090E001110196112331F0212F5A
:1015B00030E02F5F3F4F820F931F252D30E08217C1
:1015C000930714F4581A01C0512C892D897049F4DD
:1015D000552039F0B70180E290E00E947B0E5A94CA
:1015E000F7CF002329F0B701802F90E00E947B0EF7
:1015F00093FC09C0552039F0B70180E390E00E94C8
:101600007B0E5A94F7CF97FE4CC04601D7FE02C01E
:10161000812C912CC60188199909F301E80FF91F53
:10162000FE87ED87960124193109388B2F87012F0A
:1016300010E01195019511093FEF8316930629F4E7
:10164000B7018EE290E00E947B0EC814D9044CF0E2
:101650008F8598898815990524F4ED85FE8581810B
:1016600001C080E3F1E08F1A91082D853E852F5F40
:101670003F4F3E872D87801691062CF0B70190E0F2
:101680000E947B0ED9CFC814D90441F49A819633B5
:1016900020F4953319F43C8534FF81E3B70190E0E1
:1016A0004EC08A81813319F09C859F7E9C87B7014B
:1016B00090E00E947B0E111105C094FC18C085E6D5
:1016C00090E017C0B7018EE290E00E947B0E1E5F93
:1016D00082E001E0080FF301E80FF11D8081B701FE
:1016E00090E00E947B0E802F0113F3CFE6CF85E4BC
:1016F00090E0B7010E947B0ED7FC06C0C114D10454
:1017000041F4EC85E4FF05C0D194C194D1088DE289
:1017100001C08BE2B70190E00E947B0E80E32AE0DB
:10172000C216D1042CF08F5FFAE0CF1AD108F7CFA0
:10173000B70190E00E947B0EB701C601C0960E94DF
:101740007B0E54C1833631F0833779F0833509F04D
:1017500056C020C0560132E0A30EB11CF6018081B4
:10176000898301E010E0630112C05601F2E0AF0E80
:10177000B11CF601C080D18096FE03C0612F70E0DD
:1017800002C06FEF7FEFC6010E94700E8C01F92D31
:10179000FF7714C0560122E0A20EB11CF601C080F2
:1017A000D18096FE03C0612F70E002C06FEF7FEF23
:1017B000C6010E94650E8C01F92DF0689F2EF3FD85
:1017C0001AC0852D90E008171907A8F4B70180E228
:1017D00090E00E947B0E5A94F4CFF60197FC85911D
:1017E00097FE81916F01B70190E00E947B0E51102E
:1017F0005A94015011090115110579F7F7C0843683
:1018000011F0893661F5560197FE09C024E0A20E59
:10181000B11CF60160817181828193810AC0F2E07E
:10182000AF0EB11CF60160817181072E000C880B90
:10183000990BF92DFF769F2E97FF09C09095809503
:10184000709561957F4F8F4F9F4FF0689F2E2AE0D4
:1018500030E0A3010E94D90EC82EC6183FC0092D42
:10186000853721F40F7E2AE030E01DC0097F8F36D6
:1018700091F018F4883559F0C3C0803719F08837D3
:1018800011F0BEC0006104FF09C0046007C094FEEF
:1018900008C0066006C028E030E005C020E130E066
:1018A00002C020E132E0560107FF09C084E0A80E23
:1018B000B11CF601608171818281938108C0F2E0E0
:1018C000AF0EB11CF6016081718180E090E0A30150
:1018D0000E94D90EC82EC6180F77902E96FE0BC008
:1018E000092D0E7FC11650F494FE0AC092FC08C068
:1018F000092D0E7E05C0DC2C092D03C0DC2C01C097
:10190000D12E04FF0DC0FE01EC0DF11D808180334E
:1019100011F4097E09C002FF06C0D394D39404C019
:10192000802F867809F0D39403FD11C000FF06C014
:101930001C2DD51480F4150D1D190DC0D51458F4A7
:10194000B70180E290E00E947B0ED394F7CFD514CC
:1019500010F45D1801C0512C04FF10C0B70180E3E2
:1019600090E00E947B0E02FF17C001FD03C088E7D4
:1019700090E002C088E590E0B7010CC0802F867827
:1019800059F001FF02C08BE201C080E207FD8DE249
:10199000B70190E00E947B0EC11638F4B70180E3D6
:1019A00090E00E947B0E1150F7CFCA94F301EC0D2A
:1019B000F11D8081B70190E00E947B0EC110F5CF30
:1019C00015C0F4E0F51560F584E0581A93FE1FC0C9
:1019D000011127C02C8523FF2AC008E610E0392D0D
:1019E0003071932EF8018491811124C0552009F49F
:1019F000E4CCB70180E290E00E947B0E5A94F6CFCF
:101A0000F7018681978126C08FEF9FEF23C0B70132
:101A100080E290E00E947B0E5A945110F8CFD8CF0C
:101A2000512CB701802F90E00E947B0ED3CF0CE6A3
:101A300010E0D5CF91108052B70190E00E947B0E4C
:101A40000F5F1F4FCFCF23E0251510F483E0BDCFEC
:101A5000512CC0CF6096E2E10C94720DAA1BBB1B07
:101A600051E107C0AA1FBB1FA617B70710F0A61B9E
:101A7000B70B881F991F5A95A9F780959095BC01BF
:101A8000CD01089597FB072E16F4009407D077FD3B
:101A900009D00E942E0D07FC05D03EF4909581954B
:101AA0009F4F0895709561957F4F08952F923F92B3
:101AB0004F925F926F927F928F929F92AF92BF925E
:101AC000CF92DF92EF92FF920F931F93CF93DF930A
:101AD000CDB7DEB7CA1BDB0B0FB6F894DEBF0FBE67
:101AE000CDBF09942A88398848885F846E847D84B4
:101AF0008C849B84AA84B984C884DF80EE80FD80B6
:101B00000C811B81AA81B981CE0FD11D0FB6F8942B
:101B1000DEBF0FBECDBFED010895283008F027E0ED
:101B20003327DA01990F311D87FD91600096610519
:101B3000710539F432602E5F3D9330E32A95E1F769
:101B400008959F3F30F080387105610509F03C5FD2
:101B50003C5F3D93913008F08068911DDF93CF93F7
:101B60001F930F93FF92EF92192F987F9695E92F6D
:101B700096959695E90FFF27E653FF4F9927332750
:101B8000EE24FF24A701E70105900894079428F4A8
:101B9000360FE71EF81E491F511D660F771F881F5D
:101BA000991F0694A1F70590079428F4E70EF81EF4
:101BB000491F561FC11D770F881F991F661F069466
:101BC000A1F70590079428F4F80E491F561FC71F68
:101BD000D11D880F991F661F771F0694A1F70590E6
:101BE000079420F4490F561FC71FD81F990F661F6F
:101BF000771F881F0694A9F784911095177041F0FC
:101C0000D695C79557954795F794E7941A95C1F7D8
:101C1000E0E7F0E068941590159135916591959104
:101C200005907FE27395E118F10A430B560BC90B3F
:101C3000D009C0F7E10CF11E431F561FC91FD01D6C
:101C40007EF4703311F48A95E6CFE894015030F0B9
:101C5000080F0AF40027021708F4202F2395022FFB
:101C60007A3328F079E37D932A95E9F710C07D93C4
:101C70002A9589F606949795679537951795179441
:101C8000E118F10A430B560BC90BD00998F02395C4
:101C90007E9173957A3308F070E37C932013B8F744
:101CA0007E9170617D9330F0839571E37D9370E355
:101CB0002A95E1F71124EF90FF900F911F91CF919A
:101CC000DF91992787FD90950895FC01059061505B
:101CD00070400110D8F7809590958E0F9F1F089542
:101CE000FC016150704001900110D8F780959095EB
:101CF0008E0F9F1F08950F931F93CF93DF93FB01C8
:101D0000238121FD03C08FEF9FEF2CC022FF16C05F
:101D100046815781248135814217530744F4A081BD
:101D2000B1819D012F5F3F4F318320838C932681AA
:101D300037812F5F3F4F3783268314C08B01EC011F
:101D4000FB010084F185E02D0995892BE1F6D8018E
:101D500016968D919C911797019617969C938E934A
:101D60001697CE01DF91CF911F910F910895AEE0AC
:101D7000B0E0EDEBFEE00C94640D0D891E8986E069
:101D80008C831A8309838FEF9FE79E838D83AE0137
:101D9000475E5F4F6F89788DCE0101960E94B10931
:101DA000EF81F885E00FF11F10822E96E4E00C948D
:101DB000800DFA01AA27283051F1203181F1E894F1
:101DC0006F936E7F6E5F7F4F8F4F9F4FAF4FB1E02E
:101DD0003ED0B4E03CD0670F781F891F9A1FA11D29
:101DE000680F791F8A1F911DA11D6A0F711D811D2A
:101DF000911DA11D20D009F468943F912AE0269FEF
:101E000011243019305D3193DEF6CF010895462F4D
:101E10004770405D4193B3E00FD0C9F7F6CF462F2E
:101E20004F70405D4A3318F0495D31FD4052419397
:101E300002D0A9F7EACFB4E0A69597958795779554
:101E40006795BA95C9F700976105710508959B01DB
:101E5000AC010A2E06945795479537952795BA9564
:101E6000C9F7620F731F841F951FA01D0895F89472
:021E7000FFCFA2
:101E72000000803ECDCC4C3D0000803F0000803F02
:101E8200CDCC4C3E0000804005060909060000004A
:101E92000000111B0E0E1B11005365743A002569D8
:0E1EA20000543A0025004F4646004F4E000007
:00000001FF
